{
  "contractName": "AdBackLog",
  "abi": [
    {
      "constant": true,
      "inputs": [],
      "name": "weiPerSecond",
      "outputs": [
        {
          "name": "",
          "type": "uint256"
        }
      ],
      "payable": false,
      "stateMutability": "view",
      "type": "function"
    },
    {
      "constant": true,
      "inputs": [],
      "name": "owner",
      "outputs": [
        {
          "name": "",
          "type": "address"
        }
      ],
      "payable": false,
      "stateMutability": "view",
      "type": "function"
    },
    {
      "constant": false,
      "inputs": [
        {
          "name": "newOwner",
          "type": "address"
        }
      ],
      "name": "transferOwnership",
      "outputs": [],
      "payable": false,
      "stateMutability": "nonpayable",
      "type": "function"
    },
    {
      "inputs": [
        {
          "name": "_weiPerSecond",
          "type": "uint256"
        }
      ],
      "payable": false,
      "stateMutability": "nonpayable",
      "type": "constructor"
    },
    {
      "anonymous": false,
      "inputs": [
        {
          "indexed": true,
          "name": "previousOwner",
          "type": "address"
        },
        {
          "indexed": true,
          "name": "newOwner",
          "type": "address"
        }
      ],
      "name": "OwnershipTransferred",
      "type": "event"
    },
    {
      "constant": false,
      "inputs": [
        {
          "name": "_weiPerSecond",
          "type": "uint256"
        }
      ],
      "name": "setPrice",
      "outputs": [],
      "payable": false,
      "stateMutability": "nonpayable",
      "type": "function"
    },
    {
      "constant": false,
      "inputs": [
        {
          "name": "ipfsHash",
          "type": "string"
        }
      ],
      "name": "buyAdTime",
      "outputs": [],
      "payable": true,
      "stateMutability": "payable",
      "type": "function"
    },
    {
      "constant": true,
      "inputs": [],
      "name": "nextAvailableTimeStamp",
      "outputs": [
        {
          "name": "",
          "type": "uint256"
        }
      ],
      "payable": false,
      "stateMutability": "view",
      "type": "function"
    }
  ],
  "bytecode": "0x6060604052341561000f57600080fd5b60405160208061076e83398101604052808051906020019091905050336000806101000a81548173ffffffffffffffffffffffffffffffffffffffff021916908373ffffffffffffffffffffffffffffffffffffffff16021790555080600181905550506106ec806100826000396000f300606060405260043610610078576000357c0100000000000000000000000000000000000000000000000000000000900463ffffffff16806380a3a5541461007d57806384c07de4146100cf5780638da5cb5b146100f857806391b7f5ed1461014d578063a2dba0d614610170578063f2fde38b14610199575b600080fd5b6100cd600480803590602001908201803590602001908080601f016020809104026020016040519081016040528093929190818152602001838380828437820191505050505050919050506101d2565b005b34156100da57600080fd5b6100e26102d0565b6040518082815260200191505060405180910390f35b341561010357600080fd5b61010b6102d6565b604051808273ffffffffffffffffffffffffffffffffffffffff1673ffffffffffffffffffffffffffffffffffffffff16815260200191505060405180910390f35b341561015857600080fd5b61016e60048080359060200190919050506102fb565b005b341561017b57600080fd5b610183610360565b6040518082815260200191505060405180910390f35b34156101a457600080fd5b6101d0600480803573ffffffffffffffffffffffffffffffffffffffff169060200190919050506103d1565b005b6000806101dd610526565b6000809054906101000a900473ffffffffffffffffffffffffffffffffffffffff1673ffffffffffffffffffffffffffffffffffffffff166108fc349081150290604051600060405180830381858888f19350505050156102ca576001543481151561024557fe5b04925082420191506060604051908101604052804281526020018381526020018581525090506002805480600101828161027f919061054e565b91600052602060002090600302016000839091909150600082015181600001556020820151816001015560408201518160020190805190602001906102c5929190610580565b505050505b50505050565b60015481565b6000809054906101000a900473ffffffffffffffffffffffffffffffffffffffff1681565b6000809054906101000a900473ffffffffffffffffffffffffffffffffffffffff1673ffffffffffffffffffffffffffffffffffffffff163373ffffffffffffffffffffffffffffffffffffffff1614151561035657600080fd5b8060018190555050565b600080600080429250600091505b6002805490508210156103c85760028281548110151561038a57fe5b906000526020600020906003020190504281600001541180156103b05750828160010154105b156103bd57806001015492505b81600101915061036e565b82935050505090565b6000809054906101000a900473ffffffffffffffffffffffffffffffffffffffff1673ffffffffffffffffffffffffffffffffffffffff163373ffffffffffffffffffffffffffffffffffffffff1614151561042c57600080fd5b600073ffffffffffffffffffffffffffffffffffffffff168173ffffffffffffffffffffffffffffffffffffffff161415151561046857600080fd5b8073ffffffffffffffffffffffffffffffffffffffff166000809054906101000a900473ffffffffffffffffffffffffffffffffffffffff1673ffffffffffffffffffffffffffffffffffffffff167f8be0079c531659141344cd1fd0a4f28419497f9722a3daafe3b4186f6b6457e060405160405180910390a3806000806101000a81548173ffffffffffffffffffffffffffffffffffffffff021916908373ffffffffffffffffffffffffffffffffffffffff16021790555050565b6060604051908101604052806000815260200160008152602001610548610600565b81525090565b81548183558181151161057b5760030281600302836000526020600020918201910161057a9190610614565b5b505050565b828054600181600116156101000203166002900490600052602060002090601f016020900481019282601f106105c157805160ff19168380011785556105ef565b828001600101855582156105ef579182015b828111156105ee5782518255916020019190600101906105d3565b5b5090506105fc9190610653565b5090565b602060405190810160405280600081525090565b61065091905b8082111561064c5760008082016000905560018201600090556002820160006106439190610678565b5060030161061a565b5090565b90565b61067591905b80821115610671576000816000905550600101610659565b5090565b90565b50805460018160011615610100020316600290046000825580601f1061069e57506106bd565b601f0160209004906000526020600020908101906106bc9190610653565b5b505600a165627a7a723058208afae72f09d8c8a9f4f2ee5c9ee7865bc3f522e58728d1d926c1977dcc729d2d0029",
  "source": "pragma solidity ^0.4.18;\nimport \"../node_modules/zeppelin-solidity/contracts/ownership/Ownable.sol\";\n\n\ncontract AdBackLog is Ownable {\n    struct Ad {\n        uint startTime;\n        uint endTime;\n        string ipfsHash;\n    }\n\n    uint256 public weiPerSecond;\n    Ad[] private ads;\n\n    function AdBackLog (uint256 _weiPerSecond ) public {\n        weiPerSecond = _weiPerSecond;\n    }\n\n    function setPrice (uint256 _weiPerSecond) public onlyOwner() {\n        weiPerSecond = _weiPerSecond;\n    }\n\n    function buyAdTime (string ipfsHash) public payable {\n        if (owner.send(msg.value)) {\n            var secondsPurchased = msg.value/weiPerSecond;\n            var endTime = block.timestamp + secondsPurchased;\n            var ad = Ad(block.timestamp, endTime, ipfsHash);\n            ads.push(ad);\n        }\n    }\n\n    function nextAvailableTimeStamp () \n    public \n    view\n    returns (uint256) {\n        var nextAvailableTime = block.timestamp;\n        for (uint256 i = 0; i < ads.length; ++i) {\n            var ad = ads[i];\n            if (ad.startTime > block.timestamp && ad.endTime < nextAvailableTime) {\n                nextAvailableTime = ad.endTime;\n            }\n        }\n        return nextAvailableTime;\n    }\n}\n",
  "sourcePath": "/Users/ericwooley/projects/d-ads/packages/ad-factory/contracts/AdBackLog.sol",
  "compiler": {
    "name": "solc",
    "version": "0.4.19+commit.c4cbbb05.Emscripten.clang"
  },
  "schemaVersion": "1.0.1",
  "updatedAt": "2018-02-11T19:52:51.223Z"
}