{
  "contractName": "AdLogFactory",
  "abi": [
    {
      "constant": false,
      "inputs": [
        {
          "name": "_weiPerSecond",
          "type": "uint256"
        }
      ],
      "name": "deployAd",
      "outputs": [
        {
          "name": "",
          "type": "address"
        }
      ],
      "payable": false,
      "stateMutability": "nonpayable",
      "type": "function"
    }
  ],
  "bytecode": "0x6060604052341561000f57600080fd5b6108c38061001e6000396000f300606060405260043610610041576000357c0100000000000000000000000000000000000000000000000000000000900463ffffffff1680638de77e4f14610046575b600080fd5b341561005157600080fd5b61006760048080359060200190919050506100a9565b604051808273ffffffffffffffffffffffffffffffffffffffff1673ffffffffffffffffffffffffffffffffffffffff16815260200191505060405180910390f35b6000816100b46100db565b80828152602001915050604051809103906000f08015156100d457600080fd5b9050919050565b6040516107ac806100ec8339019056006060604052341561000f57600080fd5b6040516020806107ac83398101604052808051906020019091905050336000806101000a81548173ffffffffffffffffffffffffffffffffffffffff021916908373ffffffffffffffffffffffffffffffffffffffff160217905550806001819055505061072a806100826000396000f300606060405260043610610083576000357c0100000000000000000000000000000000000000000000000000000000900463ffffffff16806380a3a5541461008857806384c07de4146100da5780638da5cb5b1461010357806391b7f5ed1461015857806398d5fdca1461017b578063a2dba0d6146101a4578063f2fde38b146101cd575b600080fd5b6100d8600480803590602001908201803590602001908080601f01602080910402602001604051908101604052809392919081815260200183838082843782019150505050505091905050610206565b005b34156100e557600080fd5b6100ed610304565b6040518082815260200191505060405180910390f35b341561010e57600080fd5b61011661030a565b604051808273ffffffffffffffffffffffffffffffffffffffff1673ffffffffffffffffffffffffffffffffffffffff16815260200191505060405180910390f35b341561016357600080fd5b610179600480803590602001909190505061032f565b005b341561018657600080fd5b61018e610394565b6040518082815260200191505060405180910390f35b34156101af57600080fd5b6101b761039e565b6040518082815260200191505060405180910390f35b34156101d857600080fd5b610204600480803573ffffffffffffffffffffffffffffffffffffffff1690602001909190505061040f565b005b600080610211610564565b6000809054906101000a900473ffffffffffffffffffffffffffffffffffffffff1673ffffffffffffffffffffffffffffffffffffffff166108fc349081150290604051600060405180830381858888f19350505050156102fe576001543481151561027957fe5b0492508242019150606060405190810160405280428152602001838152602001858152509050600280548060010182816102b3919061058c565b91600052602060002090600302016000839091909150600082015181600001556020820151816001015560408201518160020190805190602001906102f99291906105be565b505050505b50505050565b60015481565b6000809054906101000a900473ffffffffffffffffffffffffffffffffffffffff1681565b6000809054906101000a900473ffffffffffffffffffffffffffffffffffffffff1673ffffffffffffffffffffffffffffffffffffffff163373ffffffffffffffffffffffffffffffffffffffff1614151561038a57600080fd5b8060018190555050565b6000600154905090565b600080600080429250600091505b600280549050821015610406576002828154811015156103c857fe5b906000526020600020906003020190504281600001541180156103ee5750828160010154105b156103fb57806001015492505b8160010191506103ac565b82935050505090565b6000809054906101000a900473ffffffffffffffffffffffffffffffffffffffff1673ffffffffffffffffffffffffffffffffffffffff163373ffffffffffffffffffffffffffffffffffffffff1614151561046a57600080fd5b600073ffffffffffffffffffffffffffffffffffffffff168173ffffffffffffffffffffffffffffffffffffffff16141515156104a657600080fd5b8073ffffffffffffffffffffffffffffffffffffffff166000809054906101000a900473ffffffffffffffffffffffffffffffffffffffff1673ffffffffffffffffffffffffffffffffffffffff167f8be0079c531659141344cd1fd0a4f28419497f9722a3daafe3b4186f6b6457e060405160405180910390a3806000806101000a81548173ffffffffffffffffffffffffffffffffffffffff021916908373ffffffffffffffffffffffffffffffffffffffff16021790555050565b606060405190810160405280600081526020016000815260200161058661063e565b81525090565b8154818355818115116105b9576003028160030283600052602060002091820191016105b89190610652565b5b505050565b828054600181600116156101000203166002900490600052602060002090601f016020900481019282601f106105ff57805160ff191683800117855561062d565b8280016001018555821561062d579182015b8281111561062c578251825591602001919060010190610611565b5b50905061063a9190610691565b5090565b602060405190810160405280600081525090565b61068e91905b8082111561068a57600080820160009055600182016000905560028201600061068191906106b6565b50600301610658565b5090565b90565b6106b391905b808211156106af576000816000905550600101610697565b5090565b90565b50805460018160011615610100020316600290046000825580601f106106dc57506106fb565b601f0160209004906000526020600020908101906106fa9190610691565b5b505600a165627a7a72305820f578a25e22fdd2fd628fc083bf4eaa2c7e2d34572032908000f53f4d2aa493470029a165627a7a7230582011d2279c1f7cb5cbe8964529dbe497e246f8e7f24946eab83633ce07aaa9db680029",
  "source": "pragma solidity ^0.4.18;\nimport \"./AdBackLog.sol\";\n\n\ncontract AdLogFactory {\n    function deployAd(uint256 _weiPerSecond) public returns (AdBackLog) {\n        return new AdBackLog(_weiPerSecond);\n    }\n}",
  "sourcePath": "/Users/ericwooley/projects/d-ads/packages/ad-factory/contracts/AdLogFactory.sol",
  "compiler": {
    "name": "solc",
    "version": "0.4.19+commit.c4cbbb05.Emscripten.clang"
  },
  "schemaVersion": "1.0.1",
  "updatedAt": "2018-02-11T19:51:40.080Z"
}