{
  "contractName": "AdBackLog",
  "abi": [
    {
      "constant": true,
      "inputs": [],
      "name": "weiPerSecond",
      "outputs": [
        {
          "name": "",
          "type": "uint256"
        }
      ],
      "payable": false,
      "stateMutability": "view",
      "type": "function"
    },
    {
      "constant": true,
      "inputs": [],
      "name": "owner",
      "outputs": [
        {
          "name": "",
          "type": "address"
        }
      ],
      "payable": false,
      "stateMutability": "view",
      "type": "function"
    },
    {
      "constant": true,
      "inputs": [],
      "name": "autoApprove",
      "outputs": [
        {
          "name": "",
          "type": "bool"
        }
      ],
      "payable": false,
      "stateMutability": "view",
      "type": "function"
    },
    {
      "constant": false,
      "inputs": [
        {
          "name": "newOwner",
          "type": "address"
        }
      ],
      "name": "transferOwnership",
      "outputs": [],
      "payable": false,
      "stateMutability": "nonpayable",
      "type": "function"
    },
    {
      "inputs": [
        {
          "name": "wps",
          "type": "uint256"
        },
        {
          "name": "_autoApprove",
          "type": "bool"
        }
      ],
      "payable": false,
      "stateMutability": "nonpayable",
      "type": "constructor"
    },
    {
      "anonymous": false,
      "inputs": [
        {
          "indexed": true,
          "name": "previousOwner",
          "type": "address"
        },
        {
          "indexed": true,
          "name": "newOwner",
          "type": "address"
        }
      ],
      "name": "OwnershipTransferred",
      "type": "event"
    },
    {
      "constant": false,
      "inputs": [
        {
          "name": "wps",
          "type": "uint256"
        }
      ],
      "name": "setPrice",
      "outputs": [
        {
          "name": "",
          "type": "uint256"
        }
      ],
      "payable": false,
      "stateMutability": "nonpayable",
      "type": "function"
    },
    {
      "constant": false,
      "inputs": [
        {
          "name": "ipfsHash",
          "type": "string"
        }
      ],
      "name": "buyAdTime",
      "outputs": [],
      "payable": true,
      "stateMutability": "payable",
      "type": "function"
    },
    {
      "constant": true,
      "inputs": [],
      "name": "nextAvailableTimeStamp",
      "outputs": [
        {
          "name": "",
          "type": "uint256"
        }
      ],
      "payable": false,
      "stateMutability": "view",
      "type": "function"
    }
  ],
  "bytecode": "0x60606040526000600460006101000a81548160ff021916908315150217905550341561002a57600080fd5b6040516040806108a783398101604052808051906020019091908051906020019091905050336000806101000a81548173ffffffffffffffffffffffffffffffffffffffff021916908373ffffffffffffffffffffffffffffffffffffffff1602179055508160028190555033600160006101000a81548173ffffffffffffffffffffffffffffffffffffffff021916908373ffffffffffffffffffffffffffffffffffffffff16021790555080600460006101000a81548160ff02191690831515021790555050506107a5806101026000396000f300606060405260043610610083576000357c0100000000000000000000000000000000000000000000000000000000900463ffffffff16806380a3a5541461008857806384c07de4146100da5780638da5cb5b1461010357806391b7f5ed14610158578063a2dba0d61461018f578063c9be2521146101b8578063f2fde38b146101e5575b600080fd5b6100d8600480803590602001908201803590602001908080601f0160208091040260200160405190810160405280939291908181526020018383808284378201915050505050509190505061021e565b005b34156100e557600080fd5b6100ed610354565b6040518082815260200191505060405180910390f35b341561010e57600080fd5b61011661035a565b604051808273ffffffffffffffffffffffffffffffffffffffff1673ffffffffffffffffffffffffffffffffffffffff16815260200191505060405180910390f35b341561016357600080fd5b6101796004808035906020019091905050610380565b6040518082815260200191505060405180910390f35b341561019a57600080fd5b6101a26103e9565b6040518082815260200191505060405180910390f35b34156101c357600080fd5b6101cb61045a565b604051808215151515815260200191505060405180910390f35b34156101f057600080fd5b61021c600480803573ffffffffffffffffffffffffffffffffffffffff1690602001909190505061046d565b005b6000806102296105c2565b600160009054906101000a900473ffffffffffffffffffffffffffffffffffffffff1673ffffffffffffffffffffffffffffffffffffffff166108fc349081150290604051600060405180830381858888f193505050501561034e576002543481151561029257fe5b0492508242019150608060405190810160405280428152602001838152602001858152602001600460009054906101000a900460ff1615158152509050600380548060010182816102e391906105f3565b9160005260206000209060040201600083909190915060008201518160000155602082015181600101556040820151816002019080519060200190610329929190610625565b5060608201518160030160006101000a81548160ff0219169083151502179055505050505b50505050565b60025481565b600160009054906101000a900473ffffffffffffffffffffffffffffffffffffffff1681565b60008060009054906101000a900473ffffffffffffffffffffffffffffffffffffffff1673ffffffffffffffffffffffffffffffffffffffff163373ffffffffffffffffffffffffffffffffffffffff161415156103dd57600080fd5b81600281905550919050565b600080600080429250600091505b6003805490508210156104515760038281548110151561041357fe5b906000526020600020906004020190504281600001541180156104395750828160010154105b1561044657806001015492505b8160010191506103f7565b82935050505090565b600460009054906101000a900460ff1681565b6000809054906101000a900473ffffffffffffffffffffffffffffffffffffffff1673ffffffffffffffffffffffffffffffffffffffff163373ffffffffffffffffffffffffffffffffffffffff161415156104c857600080fd5b600073ffffffffffffffffffffffffffffffffffffffff168173ffffffffffffffffffffffffffffffffffffffff161415151561050457600080fd5b8073ffffffffffffffffffffffffffffffffffffffff166000809054906101000a900473ffffffffffffffffffffffffffffffffffffffff1673ffffffffffffffffffffffffffffffffffffffff167f8be0079c531659141344cd1fd0a4f28419497f9722a3daafe3b4186f6b6457e060405160405180910390a3806000806101000a81548173ffffffffffffffffffffffffffffffffffffffff021916908373ffffffffffffffffffffffffffffffffffffffff16021790555050565b60806040519081016040528060008152602001600081526020016105e46106a5565b81526020016000151581525090565b8154818355818115116106205760040281600402836000526020600020918201910161061f91906106b9565b5b505050565b828054600181600116156101000203166002900490600052602060002090601f016020900481019282601f1061066657805160ff1916838001178555610694565b82800160010185558215610694579182015b82811115610693578251825591602001919060010190610678565b5b5090506106a1919061070c565b5090565b602060405190810160405280600081525090565b61070991905b808211156107055760008082016000905560018201600090556002820160006106e89190610731565b6003820160006101000a81549060ff0219169055506004016106bf565b5090565b90565b61072e91905b8082111561072a576000816000905550600101610712565b5090565b90565b50805460018160011615610100020316600290046000825580601f106107575750610776565b601f016020900490600052602060002090810190610775919061070c565b5b505600a165627a7a72305820e40c4b04d91e1cb49d0f2b97ffa5cc573d33f54a2d7c7f5f722e6243837ca0930029",
  "source": "pragma solidity ^0.4.18;\nimport \"../node_modules/zeppelin-solidity/contracts/ownership/Ownable.sol\";\n\n\ncontract AdBackLog is Ownable {\n    struct Ad {\n        uint startTime;\n        uint endTime;\n        string ipfsHash;\n        bool approved;\n    }\n    \n    address public owner;\n    uint256 public weiPerSecond;\n    Ad[] private ads;\n    bool public autoApprove = false;\n\n    function AdBackLog (uint256 wps, bool _autoApprove) public {\n        weiPerSecond = wps;\n        owner = msg.sender;\n        autoApprove = _autoApprove;\n    }\n\n    function setPrice (uint256 wps) public onlyOwner() returns(uint256) {\n        weiPerSecond = wps;\n    }\n\n    function buyAdTime (string ipfsHash) public payable {\n        if (owner.send(msg.value)) {\n            var secondsPurchased = msg.value/weiPerSecond;\n            var endTime = block.timestamp + secondsPurchased;\n            var ad = Ad(block.timestamp, endTime, ipfsHash, autoApprove);\n            ads.push(ad);\n        }\n    }\n\n    function nextAvailableTimeStamp () \n    public \n    view\n    returns (uint256) {\n        var nextAvailableTime = block.timestamp;\n        for (uint256 i = 0; i < ads.length; ++i) {\n            var ad = ads[i];\n            if (ad.startTime > block.timestamp && ad.endTime < nextAvailableTime) {\n                nextAvailableTime = ad.endTime;\n            }\n        }\n        return nextAvailableTime;\n    }\n}\n",
  "sourcePath": "/Users/ericwooley/projects/d-ads/packages/ad-factory/contracts/AdBackLog.sol",
  "compiler": {
    "name": "solc",
    "version": "0.4.19+commit.c4cbbb05.Emscripten.clang"
  },
  "schemaVersion": "1.0.1",
  "updatedAt": "2018-02-16T16:50:59.556Z"
}