{
  "contractName": "AdBackLog",
  "abi": [
    {
      "constant": true,
      "inputs": [],
      "name": "weiPerHour",
      "outputs": [
        {
          "name": "",
          "type": "uint256"
        }
      ],
      "payable": false,
      "stateMutability": "view",
      "type": "function"
    },
    {
      "constant": true,
      "inputs": [],
      "name": "owner",
      "outputs": [
        {
          "name": "",
          "type": "address"
        }
      ],
      "payable": false,
      "stateMutability": "view",
      "type": "function"
    },
    {
      "constant": true,
      "inputs": [],
      "name": "autoApprove",
      "outputs": [
        {
          "name": "",
          "type": "bool"
        }
      ],
      "payable": false,
      "stateMutability": "view",
      "type": "function"
    },
    {
      "constant": false,
      "inputs": [
        {
          "name": "newOwner",
          "type": "address"
        }
      ],
      "name": "transferOwnership",
      "outputs": [],
      "payable": false,
      "stateMutability": "nonpayable",
      "type": "function"
    },
    {
      "inputs": [
        {
          "name": "wps",
          "type": "uint256"
        },
        {
          "name": "_autoApprove",
          "type": "bool"
        }
      ],
      "payable": true,
      "stateMutability": "payable",
      "type": "constructor"
    },
    {
      "anonymous": false,
      "inputs": [
        {
          "indexed": true,
          "name": "previousOwner",
          "type": "address"
        },
        {
          "indexed": true,
          "name": "newOwner",
          "type": "address"
        }
      ],
      "name": "OwnershipTransferred",
      "type": "event"
    },
    {
      "constant": false,
      "inputs": [
        {
          "name": "wps",
          "type": "uint256"
        }
      ],
      "name": "setPrice",
      "outputs": [
        {
          "name": "",
          "type": "uint256"
        }
      ],
      "payable": false,
      "stateMutability": "nonpayable",
      "type": "function"
    },
    {
      "constant": false,
      "inputs": [
        {
          "name": "ipfsHash",
          "type": "string"
        }
      ],
      "name": "buyAdTime",
      "outputs": [],
      "payable": true,
      "stateMutability": "payable",
      "type": "function"
    },
    {
      "constant": true,
      "inputs": [],
      "name": "nextAvailableTimeStamp",
      "outputs": [
        {
          "name": "",
          "type": "uint256"
        }
      ],
      "payable": false,
      "stateMutability": "view",
      "type": "function"
    }
  ],
  "bytecode": "0x60606040526000600360006101000a81548160ff02191690831515021790555060405160408061085983398101604052808051906020019091908051906020019091905050336000806101000a81548173ffffffffffffffffffffffffffffffffffffffff021916908373ffffffffffffffffffffffffffffffffffffffff1602179055508160018190555080600360006101000a81548160ff02191690831515021790555050506107a3806100b66000396000f300606060405260043610610083576000357c0100000000000000000000000000000000000000000000000000000000900463ffffffff1680634c2349521461008857806380a3a554146100b15780638da5cb5b1461010357806391b7f5ed14610158578063a2dba0d61461018f578063c9be2521146101b8578063f2fde38b146101e5575b600080fd5b341561009357600080fd5b61009b61021e565b6040518082815260200191505060405180910390f35b610101600480803590602001908201803590602001908080601f01602080910402602001604051908101604052809392919081815260200183838082843782019150505050505091905050610224565b005b341561010e57600080fd5b610116610359565b604051808273ffffffffffffffffffffffffffffffffffffffff1673ffffffffffffffffffffffffffffffffffffffff16815260200191505060405180910390f35b341561016357600080fd5b610179600480803590602001909190505061037e565b6040518082815260200191505060405180910390f35b341561019a57600080fd5b6101a26103e7565b6040518082815260200191505060405180910390f35b34156101c357600080fd5b6101cb610458565b604051808215151515815260200191505060405180910390f35b34156101f057600080fd5b61021c600480803573ffffffffffffffffffffffffffffffffffffffff1690602001909190505061046b565b005b60015481565b60008061022f6105c0565b6000809054906101000a900473ffffffffffffffffffffffffffffffffffffffff1673ffffffffffffffffffffffffffffffffffffffff166108fc349081150290604051600060405180830381858888f1935050505015610353576001543481151561029757fe5b0492508242019150608060405190810160405280428152602001838152602001858152602001600360009054906101000a900460ff1615158152509050600280548060010182816102e891906105f1565b916000526020600020906004020160008390919091506000820151816000015560208201518160010155604082015181600201908051906020019061032e929190610623565b5060608201518160030160006101000a81548160ff0219169083151502179055505050505b50505050565b6000809054906101000a900473ffffffffffffffffffffffffffffffffffffffff1681565b60008060009054906101000a900473ffffffffffffffffffffffffffffffffffffffff1673ffffffffffffffffffffffffffffffffffffffff163373ffffffffffffffffffffffffffffffffffffffff161415156103db57600080fd5b81600181905550919050565b600080600080429250600091505b60028054905082101561044f5760028281548110151561041157fe5b906000526020600020906004020190504281600001541180156104375750828160010154105b1561044457806001015492505b8160010191506103f5565b82935050505090565b600360009054906101000a900460ff1681565b6000809054906101000a900473ffffffffffffffffffffffffffffffffffffffff1673ffffffffffffffffffffffffffffffffffffffff163373ffffffffffffffffffffffffffffffffffffffff161415156104c657600080fd5b600073ffffffffffffffffffffffffffffffffffffffff168173ffffffffffffffffffffffffffffffffffffffff161415151561050257600080fd5b8073ffffffffffffffffffffffffffffffffffffffff166000809054906101000a900473ffffffffffffffffffffffffffffffffffffffff1673ffffffffffffffffffffffffffffffffffffffff167f8be0079c531659141344cd1fd0a4f28419497f9722a3daafe3b4186f6b6457e060405160405180910390a3806000806101000a81548173ffffffffffffffffffffffffffffffffffffffff021916908373ffffffffffffffffffffffffffffffffffffffff16021790555050565b60806040519081016040528060008152602001600081526020016105e26106a3565b81526020016000151581525090565b81548183558181151161061e5760040281600402836000526020600020918201910161061d91906106b7565b5b505050565b828054600181600116156101000203166002900490600052602060002090601f016020900481019282601f1061066457805160ff1916838001178555610692565b82800160010185558215610692579182015b82811115610691578251825591602001919060010190610676565b5b50905061069f919061070a565b5090565b602060405190810160405280600081525090565b61070791905b808211156107035760008082016000905560018201600090556002820160006106e6919061072f565b6003820160006101000a81549060ff0219169055506004016106bd565b5090565b90565b61072c91905b80821115610728576000816000905550600101610710565b5090565b90565b50805460018160011615610100020316600290046000825580601f106107555750610774565b601f016020900490600052602060002090810190610773919061070a565b5b505600a165627a7a72305820b7b795c7b490cf097e858238012900f1707e381571ff3912e114ce587f08d0c10029",
  "source": "pragma solidity ^0.4.19;\nimport \"../node_modules/zeppelin-solidity/contracts/ownership/Ownable.sol\";\n\n\ncontract AdBackLog is Ownable {\n    struct Ad {\n        uint startTime;\n        uint endTime;\n        string ipfsHash;\n        bool approved;\n    }\n    \n    uint256 public weiPerHour;\n    Ad[] private ads;\n    bool public autoApprove = false;\n\n    function AdBackLog (uint256 wps, bool _autoApprove) public payable {\n        weiPerHour = wps;\n        autoApprove = _autoApprove;\n    }\n\n    function setPrice (uint256 wps) public onlyOwner() returns(uint256) {\n        weiPerHour = wps;\n    }\n\n    function buyAdTime (string ipfsHash) public payable {\n        if (owner.send(msg.value)) {\n            uint256 hoursPurchased = msg.value/weiPerHour;\n            uint256 endTime = block.timestamp + hoursPurchased;\n            var ad = Ad(block.timestamp, endTime, ipfsHash, autoApprove);\n            ads.push(ad);\n        }\n    }\n\n    function nextAvailableTimeStamp () \n    public \n    view\n    returns (uint256) {\n        uint nextAvailableTime = block.timestamp;\n        for (uint256 i = 0; i < ads.length; ++i) {\n            var ad = ads[i];\n            if (ad.startTime > block.timestamp && ad.endTime < nextAvailableTime) {\n                nextAvailableTime = ad.endTime;\n            }\n        }\n        return nextAvailableTime;\n    }\n}\n",
  "sourcePath": "/Users/ericwooley/projects/EtherAds/packages/ad-factory/contracts/AdBackLog.sol",
  "compiler": {
    "name": "solc",
    "version": "0.4.19+commit.c4cbbb05.Emscripten.clang"
  },
  "schemaVersion": "2.0.0",
  "updatedAt": "2018-03-13T16:04:26.134Z"
}